:0E00000012C0FECF2AC0FCCFFBCFFACF45C006
:10000E00F8CFF7CFF6CFF5CFF4CFF3CFF2CFF1CFC6
:10001E00F0CFEFCFEECFEDCFF894EE27ECBBF1E0C3
:10002E00FBBFEBBFE5BF8DE0A2E0BB27ED938A954A
:10003E00E9F780E094E0A0E6ED930197E9F7EFE5AC
:10004E00EDBFE4E0EEBFC0E6D1E031C0AA93BA93B3
:10005E00EA93FA93EFB7EA93E1E0EEBD62D067D090
:10006E00AFEFB0E0AE1BBF0BFD01EF2FF0E0EBBD2D
:10007E0058D061D0AFEFAE1BEA2FEABDE991EFBFCA
:10008E00F991E991B991A99118958A93EA93EFB7ED
:10009E00EA93E0E0EEBDEDBDECBD94988BE18A9560
:1000AE00F1F7949AE991EFBFE991899118958F989C
:1000BE008E988C9AE0E0EFBDE9E0EEBDEFEFEBBD80
:1000CE00EABDE0E1E9BFEBB7E068EBBFECE0E5BF0E
:1000DE00E0E8EABF7894869910C026D0EF3FAFE7EC
:1000EE00FA0720F01ED0EFEFFFE704C01DD0EC5949
:1000FE00FF4F17D02CD0869BFECF879910C014D0FF
:10010E00E93CA0E0FA0720F40CD0E8ECF0E004C0E3
:10011E000BD0E456F04005D01AD0879BFECFDBCF34
:10012E00FFCFA0E0B0E00895FCDF01D00895119656
:10013E0002D0FE2F1197E199FECFFF93FFB7F894EF
:10014E00AEBBBFBBE09AEDB3FFBFFF91089507D0E2
:10015E001196EF93EF2F03D0EF9111970895E19B36
:10016E0002C0A895FCCF9FB7F894AEBBBFBBE09A78
:10017E008DB3E81719F0EDBBE29AE19A9FBF08958F
:00000001FF
